{
  "_format": "hh-sol-artifact-1",
  "contractName": "OnChainNFT",
  "sourceName": "contracts/OnChainNFT.sol",
  "abi": [
    {
      "inputs": [],
      "stateMutability": "nonpayable",
      "type": "constructor"
    },
    {
      "inputs": [
        {
          "internalType": "address",
          "name": "sender",
          "type": "address"
        },
        {
          "internalType": "uint256",
          "name": "tokenId",
          "type": "uint256"
        },
        {
          "internalType": "address",
          "name": "owner",
          "type": "address"
        }
      ],
      "name": "ERC721IncorrectOwner",
      "type": "error"
    },
    {
      "inputs": [
        {
          "internalType": "address",
          "name": "operator",
          "type": "address"
        },
        {
          "internalType": "uint256",
          "name": "tokenId",
          "type": "uint256"
        }
      ],
      "name": "ERC721InsufficientApproval",
      "type": "error"
    },
    {
      "inputs": [
        {
          "internalType": "address",
          "name": "approver",
          "type": "address"
        }
      ],
      "name": "ERC721InvalidApprover",
      "type": "error"
    },
    {
      "inputs": [
        {
          "internalType": "address",
          "name": "operator",
          "type": "address"
        }
      ],
      "name": "ERC721InvalidOperator",
      "type": "error"
    },
    {
      "inputs": [
        {
          "internalType": "address",
          "name": "owner",
          "type": "address"
        }
      ],
      "name": "ERC721InvalidOwner",
      "type": "error"
    },
    {
      "inputs": [
        {
          "internalType": "address",
          "name": "receiver",
          "type": "address"
        }
      ],
      "name": "ERC721InvalidReceiver",
      "type": "error"
    },
    {
      "inputs": [
        {
          "internalType": "address",
          "name": "sender",
          "type": "address"
        }
      ],
      "name": "ERC721InvalidSender",
      "type": "error"
    },
    {
      "inputs": [
        {
          "internalType": "uint256",
          "name": "tokenId",
          "type": "uint256"
        }
      ],
      "name": "ERC721NonexistentToken",
      "type": "error"
    },
    {
      "inputs": [
        {
          "internalType": "address",
          "name": "owner",
          "type": "address"
        }
      ],
      "name": "OwnableInvalidOwner",
      "type": "error"
    },
    {
      "inputs": [
        {
          "internalType": "address",
          "name": "account",
          "type": "address"
        }
      ],
      "name": "OwnableUnauthorizedAccount",
      "type": "error"
    },
    {
      "anonymous": false,
      "inputs": [
        {
          "indexed": true,
          "internalType": "address",
          "name": "owner",
          "type": "address"
        },
        {
          "indexed": true,
          "internalType": "address",
          "name": "approved",
          "type": "address"
        },
        {
          "indexed": true,
          "internalType": "uint256",
          "name": "tokenId",
          "type": "uint256"
        }
      ],
      "name": "Approval",
      "type": "event"
    },
    {
      "anonymous": false,
      "inputs": [
        {
          "indexed": true,
          "internalType": "address",
          "name": "owner",
          "type": "address"
        },
        {
          "indexed": true,
          "internalType": "address",
          "name": "operator",
          "type": "address"
        },
        {
          "indexed": false,
          "internalType": "bool",
          "name": "approved",
          "type": "bool"
        }
      ],
      "name": "ApprovalForAll",
      "type": "event"
    },
    {
      "anonymous": false,
      "inputs": [
        {
          "indexed": false,
          "internalType": "uint256",
          "name": "_fromTokenId",
          "type": "uint256"
        },
        {
          "indexed": false,
          "internalType": "uint256",
          "name": "_toTokenId",
          "type": "uint256"
        }
      ],
      "name": "BatchMetadataUpdate",
      "type": "event"
    },
    {
      "anonymous": false,
      "inputs": [
        {
          "indexed": false,
          "internalType": "uint256",
          "name": "_tokenId",
          "type": "uint256"
        }
      ],
      "name": "MetadataUpdate",
      "type": "event"
    },
    {
      "anonymous": false,
      "inputs": [
        {
          "indexed": false,
          "internalType": "uint256",
          "name": "tokenId",
          "type": "uint256"
        }
      ],
      "name": "Minted",
      "type": "event"
    },
    {
      "anonymous": false,
      "inputs": [
        {
          "indexed": true,
          "internalType": "address",
          "name": "previousOwner",
          "type": "address"
        },
        {
          "indexed": true,
          "internalType": "address",
          "name": "newOwner",
          "type": "address"
        }
      ],
      "name": "OwnershipTransferred",
      "type": "event"
    },
    {
      "anonymous": false,
      "inputs": [
        {
          "indexed": true,
          "internalType": "address",
          "name": "from",
          "type": "address"
        },
        {
          "indexed": true,
          "internalType": "address",
          "name": "to",
          "type": "address"
        },
        {
          "indexed": true,
          "internalType": "uint256",
          "name": "tokenId",
          "type": "uint256"
        }
      ],
      "name": "Transfer",
      "type": "event"
    },
    {
      "inputs": [
        {
          "internalType": "address",
          "name": "to",
          "type": "address"
        },
        {
          "internalType": "uint256",
          "name": "tokenId",
          "type": "uint256"
        }
      ],
      "name": "approve",
      "outputs": [],
      "stateMutability": "nonpayable",
      "type": "function"
    },
    {
      "inputs": [
        {
          "internalType": "address",
          "name": "owner",
          "type": "address"
        }
      ],
      "name": "balanceOf",
      "outputs": [
        {
          "internalType": "uint256",
          "name": "",
          "type": "uint256"
        }
      ],
      "stateMutability": "view",
      "type": "function"
    },
    {
      "inputs": [
        {
          "internalType": "string",
          "name": "imageURI",
          "type": "string"
        }
      ],
      "name": "formatTokenURI",
      "outputs": [
        {
          "internalType": "string",
          "name": "",
          "type": "string"
        }
      ],
      "stateMutability": "pure",
      "type": "function"
    },
    {
      "inputs": [
        {
          "internalType": "uint256",
          "name": "tokenId",
          "type": "uint256"
        }
      ],
      "name": "getApproved",
      "outputs": [
        {
          "internalType": "address",
          "name": "",
          "type": "address"
        }
      ],
      "stateMutability": "view",
      "type": "function"
    },
    {
      "inputs": [
        {
          "internalType": "address",
          "name": "owner",
          "type": "address"
        },
        {
          "internalType": "address",
          "name": "operator",
          "type": "address"
        }
      ],
      "name": "isApprovedForAll",
      "outputs": [
        {
          "internalType": "bool",
          "name": "",
          "type": "bool"
        }
      ],
      "stateMutability": "view",
      "type": "function"
    },
    {
      "inputs": [
        {
          "internalType": "string",
          "name": "svg",
          "type": "string"
        }
      ],
      "name": "mint",
      "outputs": [],
      "stateMutability": "nonpayable",
      "type": "function"
    },
    {
      "inputs": [],
      "name": "name",
      "outputs": [
        {
          "internalType": "string",
          "name": "",
          "type": "string"
        }
      ],
      "stateMutability": "view",
      "type": "function"
    },
    {
      "inputs": [],
      "name": "owner",
      "outputs": [
        {
          "internalType": "address",
          "name": "",
          "type": "address"
        }
      ],
      "stateMutability": "view",
      "type": "function"
    },
    {
      "inputs": [
        {
          "internalType": "uint256",
          "name": "tokenId",
          "type": "uint256"
        }
      ],
      "name": "ownerOf",
      "outputs": [
        {
          "internalType": "address",
          "name": "",
          "type": "address"
        }
      ],
      "stateMutability": "view",
      "type": "function"
    },
    {
      "inputs": [],
      "name": "renounceOwnership",
      "outputs": [],
      "stateMutability": "nonpayable",
      "type": "function"
    },
    {
      "inputs": [
        {
          "internalType": "address",
          "name": "from",
          "type": "address"
        },
        {
          "internalType": "address",
          "name": "to",
          "type": "address"
        },
        {
          "internalType": "uint256",
          "name": "tokenId",
          "type": "uint256"
        }
      ],
      "name": "safeTransferFrom",
      "outputs": [],
      "stateMutability": "nonpayable",
      "type": "function"
    },
    {
      "inputs": [
        {
          "internalType": "address",
          "name": "from",
          "type": "address"
        },
        {
          "internalType": "address",
          "name": "to",
          "type": "address"
        },
        {
          "internalType": "uint256",
          "name": "tokenId",
          "type": "uint256"
        },
        {
          "internalType": "bytes",
          "name": "data",
          "type": "bytes"
        }
      ],
      "name": "safeTransferFrom",
      "outputs": [],
      "stateMutability": "nonpayable",
      "type": "function"
    },
    {
      "inputs": [
        {
          "internalType": "address",
          "name": "operator",
          "type": "address"
        },
        {
          "internalType": "bool",
          "name": "approved",
          "type": "bool"
        }
      ],
      "name": "setApprovalForAll",
      "outputs": [],
      "stateMutability": "nonpayable",
      "type": "function"
    },
    {
      "inputs": [
        {
          "internalType": "bytes4",
          "name": "interfaceId",
          "type": "bytes4"
        }
      ],
      "name": "supportsInterface",
      "outputs": [
        {
          "internalType": "bool",
          "name": "",
          "type": "bool"
        }
      ],
      "stateMutability": "view",
      "type": "function"
    },
    {
      "inputs": [
        {
          "internalType": "string",
          "name": "svg",
          "type": "string"
        }
      ],
      "name": "svgToImageURI",
      "outputs": [
        {
          "internalType": "string",
          "name": "",
          "type": "string"
        }
      ],
      "stateMutability": "pure",
      "type": "function"
    },
    {
      "inputs": [],
      "name": "symbol",
      "outputs": [
        {
          "internalType": "string",
          "name": "",
          "type": "string"
        }
      ],
      "stateMutability": "view",
      "type": "function"
    },
    {
      "inputs": [
        {
          "internalType": "uint256",
          "name": "tokenId",
          "type": "uint256"
        }
      ],
      "name": "tokenURI",
      "outputs": [
        {
          "internalType": "string",
          "name": "",
          "type": "string"
        }
      ],
      "stateMutability": "view",
      "type": "function"
    },
    {
      "inputs": [
        {
          "internalType": "address",
          "name": "from",
          "type": "address"
        },
        {
          "internalType": "address",
          "name": "to",
          "type": "address"
        },
        {
          "internalType": "uint256",
          "name": "tokenId",
          "type": "uint256"
        }
      ],
      "name": "transferFrom",
      "outputs": [],
      "stateMutability": "nonpayable",
      "type": "function"
    },
    {
      "inputs": [
        {
          "internalType": "address",
          "name": "newOwner",
          "type": "address"
        }
      ],
      "name": "transferOwnership",
      "outputs": [],
      "stateMutability": "nonpayable",
      "type": "function"
    }
  ],
  "bytecode": "0x60806040523480156200001157600080fd5b50336040518060400160405280600a81526020017f4f6e436861696e4e4654000000000000000000000000000000000000000000008152506040518060400160405280600381526020017f4f4e43000000000000000000000000000000000000000000000000000000000081525081600090816200009091906200047a565b508060019081620000a291906200047a565b505050600073ffffffffffffffffffffffffffffffffffffffff168173ffffffffffffffffffffffffffffffffffffffff16036200011a5760006040517f1e4fbdf7000000000000000000000000000000000000000000000000000000008152600401620001119190620005a6565b60405180910390fd5b6200012b816200013a60201b60201c565b506001600881905550620005c3565b6000600760009054906101000a900473ffffffffffffffffffffffffffffffffffffffff16905081600760006101000a81548173ffffffffffffffffffffffffffffffffffffffff021916908373ffffffffffffffffffffffffffffffffffffffff1602179055508173ffffffffffffffffffffffffffffffffffffffff168173ffffffffffffffffffffffffffffffffffffffff167f8be0079c531659141344cd1fd0a4f28419497f9722a3daafe3b4186f6b6457e060405160405180910390a35050565b600081519050919050565b7f4e487b7100000000000000000000000000000000000000000000000000000000600052604160045260246000fd5b7f4e487b7100000000000000000000000000000000000000000000000000000000600052602260045260246000fd5b600060028204905060018216806200028257607f821691505b6020821081036200029857620002976200023a565b5b50919050565b60008190508160005260206000209050919050565b60006020601f8301049050919050565b600082821b905092915050565b600060088302620003027fffffffffffffffffffffffffffffffffffffffffffffffffffffffffffffffff82620002c3565b6200030e8683620002c3565b95508019841693508086168417925050509392505050565b6000819050919050565b6000819050919050565b60006200035b620003556200034f8462000326565b62000330565b62000326565b9050919050565b6000819050919050565b62000377836200033a565b6200038f620003868262000362565b848454620002d0565b825550505050565b600090565b620003a662000397565b620003b38184846200036c565b505050565b5b81811015620003db57620003cf6000826200039c565b600181019050620003b9565b5050565b601f8211156200042a57620003f4816200029e565b620003ff84620002b3565b810160208510156200040f578190505b620004276200041e85620002b3565b830182620003b8565b50505b505050565b600082821c905092915050565b60006200044f600019846008026200042f565b1980831691505092915050565b60006200046a83836200043c565b9150826002028217905092915050565b620004858262000200565b67ffffffffffffffff811115620004a157620004a06200020b565b5b620004ad825462000269565b620004ba828285620003df565b600060209050601f831160018114620004f25760008415620004dd578287015190505b620004e985826200045c565b86555062000559565b601f19841662000502866200029e565b60005b828110156200052c5784890151825560018201915060208501945060208101905062000505565b868310156200054c578489015162000548601f8916826200043c565b8355505b6001600288020188555050505b505050505050565b600073ffffffffffffffffffffffffffffffffffffffff82169050919050565b60006200058e8262000561565b9050919050565b620005a08162000581565b82525050565b6000602082019050620005bd600083018462000595565b92915050565b612ff280620005d36000396000f3fe608060405234801561001057600080fd5b50600436106101215760003560e01c8063715018a6116100ad578063b88d4fde11610071578063b88d4fde1461031a578063c87b56dd14610336578063d85d3d2714610366578063e985e9c514610382578063f2fde38b146103b257610121565b8063715018a61461028857806371aee193146102925780638da5cb5b146102c257806395d89b41146102e0578063a22cb465146102fe57610121565b806323b872dd116100f457806323b872dd146101c057806330d871c6146101dc57806342842e0e1461020c5780636352211e1461022857806370a082311461025857610121565b806301ffc9a71461012657806306fdde0314610156578063081812fc14610174578063095ea7b3146101a4575b600080fd5b610140600480360381019061013b9190611dbd565b6103ce565b60405161014d9190611e05565b60405180910390f35b61015e61042f565b60405161016b9190611eb0565b60405180910390f35b61018e60048036038101906101899190611f08565b6104c1565b60405161019b9190611f76565b60405180910390f35b6101be60048036038101906101b99190611fbd565b6104dd565b005b6101da60048036038101906101d59190611ffd565b6104f3565b005b6101f660048036038101906101f19190612185565b6105f5565b6040516102039190611eb0565b60405180910390f35b61022660048036038101906102219190611ffd565b61064f565b005b610242600480360381019061023d9190611f08565b61066f565b60405161024f9190611f76565b60405180910390f35b610272600480360381019061026d91906121ce565b610681565b60405161027f919061220a565b60405180910390f35b61029061073b565b005b6102ac60048036038101906102a79190612185565b61074f565b6040516102b99190611eb0565b60405180910390f35b6102ca61079d565b6040516102d79190611f76565b60405180910390f35b6102e86107c7565b6040516102f59190611eb0565b60405180910390f35b61031860048036038101906103139190612251565b610859565b005b610334600480360381019061032f9190612332565b61086f565b005b610350600480360381019061034b9190611f08565b61088c565b60405161035d9190611eb0565b60405180910390f35b610380600480360381019061037b9190612185565b61099f565b005b61039c600480360381019061039791906123b5565b610a31565b6040516103a99190611e05565b60405180910390f35b6103cc60048036038101906103c791906121ce565b610ac5565b005b6000634906490660e01b7bffffffffffffffffffffffffffffffffffffffffffffffffffffffff1916827bffffffffffffffffffffffffffffffffffffffffffffffffffffffff19161480610428575061042782610b4b565b5b9050919050565b60606000805461043e90612424565b80601f016020809104026020016040519081016040528092919081815260200182805461046a90612424565b80156104b75780601f1061048c576101008083540402835291602001916104b7565b820191906000526020600020905b81548152906001019060200180831161049a57829003601f168201915b5050505050905090565b60006104cc82610c2d565b506104d682610cb5565b9050919050565b6104ef82826104ea610cf2565b610cfa565b5050565b600073ffffffffffffffffffffffffffffffffffffffff168273ffffffffffffffffffffffffffffffffffffffff16036105655760006040517f64a0ae9200000000000000000000000000000000000000000000000000000000815260040161055c9190611f76565b60405180910390fd5b60006105798383610574610cf2565b610d0c565b90508373ffffffffffffffffffffffffffffffffffffffff168173ffffffffffffffffffffffffffffffffffffffff16146105ef578382826040517f64283d7b0000000000000000000000000000000000000000000000000000000081526004016105e693929190612455565b60405180910390fd5b50505050565b6060600060405180610240016040528061020a8152602001612db361020a91399050600061062284610f26565b905081816040516020016106379291906124c8565b60405160208183030381529060405292505050919050565b61066a8383836040518060200160405280600081525061086f565b505050565b600061067a82610c2d565b9050919050565b60008073ffffffffffffffffffffffffffffffffffffffff168273ffffffffffffffffffffffffffffffffffffffff16036106f45760006040517f89c62b640000000000000000000000000000000000000000000000000000000081526004016106eb9190611f76565b60405180910390fd5b600360008373ffffffffffffffffffffffffffffffffffffffff1673ffffffffffffffffffffffffffffffffffffffff168152602001908152602001600020549050919050565b6107436110bd565b61074d6000611144565b565b606061077760405160200161076390612818565b604051602081830303815290604052610f26565b6040516020016107879190612879565b6040516020818303038152906040529050919050565b6000600760009054906101000a900473ffffffffffffffffffffffffffffffffffffffff16905090565b6060600180546107d690612424565b80601f016020809104026020016040519081016040528092919081815260200182805461080290612424565b801561084f5780601f106108245761010080835404028352916020019161084f565b820191906000526020600020905b81548152906001019060200180831161083257829003601f168201915b5050505050905090565b61086b610864610cf2565b838361120a565b5050565b61087a8484846104f3565b61088684848484611379565b50505050565b606061089782610c2d565b5060006006600084815260200190815260200160002080546108b890612424565b80601f01602080910402602001604051908101604052809291908181526020018280546108e490612424565b80156109315780601f1061090657610100808354040283529160200191610931565b820191906000526020600020905b81548152906001019060200180831161091457829003601f168201915b505050505090506000610942611530565b9050600081510361095757819250505061099a565b60008251111561098c5780826040516020016109749291906124c8565b6040516020818303038152906040529250505061099a565b61099584611547565b925050505b919050565b6109a76110bd565b60006109b2826105f5565b905060006109bf8261074f565b9050600060085490506109d233826115b0565b6109dc81836115ce565b7f176b02bb2d12439ff7a20b59f402cca16c76f50508b13ef3166a600eb719354a81604051610a0b919061220a565b60405180910390a160086000815480929190610a26906128ca565b919050555050505050565b6000600560008473ffffffffffffffffffffffffffffffffffffffff1673ffffffffffffffffffffffffffffffffffffffff16815260200190815260200160002060008373ffffffffffffffffffffffffffffffffffffffff1673ffffffffffffffffffffffffffffffffffffffff16815260200190815260200160002060009054906101000a900460ff16905092915050565b610acd6110bd565b600073ffffffffffffffffffffffffffffffffffffffff168173ffffffffffffffffffffffffffffffffffffffff1603610b3f5760006040517f1e4fbdf7000000000000000000000000000000000000000000000000000000008152600401610b369190611f76565b60405180910390fd5b610b4881611144565b50565b60007f80ac58cd000000000000000000000000000000000000000000000000000000007bffffffffffffffffffffffffffffffffffffffffffffffffffffffff1916827bffffffffffffffffffffffffffffffffffffffffffffffffffffffff19161480610c1657507f5b5e139f000000000000000000000000000000000000000000000000000000007bffffffffffffffffffffffffffffffffffffffffffffffffffffffff1916827bffffffffffffffffffffffffffffffffffffffffffffffffffffffff1916145b80610c265750610c258261162a565b5b9050919050565b600080610c3983611694565b9050600073ffffffffffffffffffffffffffffffffffffffff168173ffffffffffffffffffffffffffffffffffffffff1603610cac57826040517f7e273289000000000000000000000000000000000000000000000000000000008152600401610ca3919061220a565b60405180910390fd5b80915050919050565b60006004600083815260200190815260200160002060009054906101000a900473ffffffffffffffffffffffffffffffffffffffff169050919050565b600033905090565b610d0783838360016116d1565b505050565b600080610d1884611694565b9050600073ffffffffffffffffffffffffffffffffffffffff168373ffffffffffffffffffffffffffffffffffffffff1614610d5a57610d59818486611896565b5b600073ffffffffffffffffffffffffffffffffffffffff168173ffffffffffffffffffffffffffffffffffffffff1614610deb57610d9c6000856000806116d1565b6001600360008373ffffffffffffffffffffffffffffffffffffffff1673ffffffffffffffffffffffffffffffffffffffff168152602001908152602001600020600082825403925050819055505b600073ffffffffffffffffffffffffffffffffffffffff168573ffffffffffffffffffffffffffffffffffffffff1614610e6e576001600360008773ffffffffffffffffffffffffffffffffffffffff1673ffffffffffffffffffffffffffffffffffffffff168152602001908152602001600020600082825401925050819055505b846002600086815260200190815260200160002060006101000a81548173ffffffffffffffffffffffffffffffffffffffff021916908373ffffffffffffffffffffffffffffffffffffffff160217905550838573ffffffffffffffffffffffffffffffffffffffff168273ffffffffffffffffffffffffffffffffffffffff167fddf252ad1be2c89b69c2b068fc378daa952ba7f163c4a11628f55a4df523b3ef60405160405180910390a4809150509392505050565b606060008251905060008103610f4e57604051806020016040528060008152509150506110b8565b60006003600283610f5f9190612912565b610f699190612975565b6004610f7591906129a6565b90506000602082610f869190612912565b67ffffffffffffffff811115610f9f57610f9e61205a565b5b6040519080825280601f01601f191660200182016040528015610fd15781602001600182028036833780820191505090505b5090506000604051806060016040528060408152602001612d73604091399050600181016020830160005b868110156110755760038101905062ffffff818a015116603f8160121c168401518060081b905060ff603f83600c1c1686015116810190508060081b905060ff603f8360061c1686015116810190508060081b905060ff603f831686015116810190508060e01b90508084526004840193505050610ffc565b50600386066001811461108f576002811461109f576110aa565b613d3d60f01b60028303526110aa565b603d60f81b60018303525b508484525050819450505050505b919050565b6110c5610cf2565b73ffffffffffffffffffffffffffffffffffffffff166110e361079d565b73ffffffffffffffffffffffffffffffffffffffff161461114257611106610cf2565b6040517f118cdaa70000000000000000000000000000000000000000000000000000000081526004016111399190611f76565b60405180910390fd5b565b6000600760009054906101000a900473ffffffffffffffffffffffffffffffffffffffff16905081600760006101000a81548173ffffffffffffffffffffffffffffffffffffffff021916908373ffffffffffffffffffffffffffffffffffffffff1602179055508173ffffffffffffffffffffffffffffffffffffffff168173ffffffffffffffffffffffffffffffffffffffff167f8be0079c531659141344cd1fd0a4f28419497f9722a3daafe3b4186f6b6457e060405160405180910390a35050565b600073ffffffffffffffffffffffffffffffffffffffff168273ffffffffffffffffffffffffffffffffffffffff160361127b57816040517f5b08ba180000000000000000000000000000000000000000000000000000000081526004016112729190611f76565b60405180910390fd5b80600560008573ffffffffffffffffffffffffffffffffffffffff1673ffffffffffffffffffffffffffffffffffffffff16815260200190815260200160002060008473ffffffffffffffffffffffffffffffffffffffff1673ffffffffffffffffffffffffffffffffffffffff16815260200190815260200160002060006101000a81548160ff0219169083151502179055508173ffffffffffffffffffffffffffffffffffffffff168373ffffffffffffffffffffffffffffffffffffffff167f17307eab39ab6107e8899845ad3d59bd9653f200f220920489ca2b5937696c318360405161136c9190611e05565b60405180910390a3505050565b60008373ffffffffffffffffffffffffffffffffffffffff163b111561152a578273ffffffffffffffffffffffffffffffffffffffff1663150b7a026113bd610cf2565b8685856040518563ffffffff1660e01b81526004016113df9493929190612a3d565b6020604051808303816000875af192505050801561141b57506040513d601f19601f820116820180604052508101906114189190612a9e565b60015b61149f573d806000811461144b576040519150601f19603f3d011682016040523d82523d6000602084013e611450565b606091505b50600081510361149757836040517f64a0ae9200000000000000000000000000000000000000000000000000000000815260040161148e9190611f76565b60405180910390fd5b805181602001fd5b63150b7a0260e01b7bffffffffffffffffffffffffffffffffffffffffffffffffffffffff1916817bffffffffffffffffffffffffffffffffffffffffffffffffffffffff19161461152857836040517f64a0ae9200000000000000000000000000000000000000000000000000000000815260040161151f9190611f76565b60405180910390fd5b505b50505050565b606060405180602001604052806000815250905090565b606061155282610c2d565b50600061155d611530565b9050600081511161157d57604051806020016040528060008152506115a8565b806115878461195a565b6040516020016115989291906124c8565b6040516020818303038152906040525b915050919050565b6115ca828260405180602001604052806000815250611a28565b5050565b806006600084815260200190815260200160002090816115ee9190612c77565b507ff8e1a15aba9398e019f0b49df1a4fde98ee17ae345cb5f6b5e2c27f5033e8ce78260405161161e919061220a565b60405180910390a15050565b60007f01ffc9a7000000000000000000000000000000000000000000000000000000007bffffffffffffffffffffffffffffffffffffffffffffffffffffffff1916827bffffffffffffffffffffffffffffffffffffffffffffffffffffffff1916149050919050565b60006002600083815260200190815260200160002060009054906101000a900473ffffffffffffffffffffffffffffffffffffffff169050919050565b808061170a5750600073ffffffffffffffffffffffffffffffffffffffff168273ffffffffffffffffffffffffffffffffffffffff1614155b1561183e57600061171a84610c2d565b9050600073ffffffffffffffffffffffffffffffffffffffff168373ffffffffffffffffffffffffffffffffffffffff161415801561178557508273ffffffffffffffffffffffffffffffffffffffff168173ffffffffffffffffffffffffffffffffffffffff1614155b801561179857506117968184610a31565b155b156117da57826040517fa9fbf51f0000000000000000000000000000000000000000000000000000000081526004016117d19190611f76565b60405180910390fd5b811561183c57838573ffffffffffffffffffffffffffffffffffffffff168273ffffffffffffffffffffffffffffffffffffffff167f8c5be1e5ebec7d5bd14f71427d1e84f3dd0314c0f7b2291e5b200ac8c7c3b92560405160405180910390a45b505b836004600085815260200190815260200160002060006101000a81548173ffffffffffffffffffffffffffffffffffffffff021916908373ffffffffffffffffffffffffffffffffffffffff16021790555050505050565b6118a1838383611a44565b61195557600073ffffffffffffffffffffffffffffffffffffffff168373ffffffffffffffffffffffffffffffffffffffff160361191657806040517f7e27328900000000000000000000000000000000000000000000000000000000815260040161190d919061220a565b60405180910390fd5b81816040517f177e802f00000000000000000000000000000000000000000000000000000000815260040161194c929190612d49565b60405180910390fd5b505050565b60606000600161196984611b05565b01905060008167ffffffffffffffff8111156119885761198761205a565b5b6040519080825280601f01601f1916602001820160405280156119ba5781602001600182028036833780820191505090505b509050600082602001820190505b600115611a1d578080600190039150507f3031323334353637383961626364656600000000000000000000000000000000600a86061a8153600a8581611a1157611a10612946565b5b049450600085036119c8575b819350505050919050565b611a328383611c58565b611a3f6000848484611379565b505050565b60008073ffffffffffffffffffffffffffffffffffffffff168373ffffffffffffffffffffffffffffffffffffffff1614158015611afc57508273ffffffffffffffffffffffffffffffffffffffff168473ffffffffffffffffffffffffffffffffffffffff161480611abd5750611abc8484610a31565b5b80611afb57508273ffffffffffffffffffffffffffffffffffffffff16611ae383610cb5565b73ffffffffffffffffffffffffffffffffffffffff16145b5b90509392505050565b600080600090507a184f03e93ff9f4daa797ed6e38ed64bf6a1f0100000000000000008310611b63577a184f03e93ff9f4daa797ed6e38ed64bf6a1f0100000000000000008381611b5957611b58612946565b5b0492506040810190505b6d04ee2d6d415b85acef81000000008310611ba0576d04ee2d6d415b85acef81000000008381611b9657611b95612946565b5b0492506020810190505b662386f26fc100008310611bcf57662386f26fc100008381611bc557611bc4612946565b5b0492506010810190505b6305f5e1008310611bf8576305f5e1008381611bee57611bed612946565b5b0492506008810190505b6127108310611c1d576127108381611c1357611c12612946565b5b0492506004810190505b60648310611c405760648381611c3657611c35612946565b5b0492506002810190505b600a8310611c4f576001810190505b80915050919050565b600073ffffffffffffffffffffffffffffffffffffffff168273ffffffffffffffffffffffffffffffffffffffff1603611cca5760006040517f64a0ae92000000000000000000000000000000000000000000000000000000008152600401611cc19190611f76565b60405180910390fd5b6000611cd883836000610d0c565b9050600073ffffffffffffffffffffffffffffffffffffffff168173ffffffffffffffffffffffffffffffffffffffff1614611d4c5760006040517f73c6ac6e000000000000000000000000000000000000000000000000000000008152600401611d439190611f76565b60405180910390fd5b505050565b6000604051905090565b600080fd5b600080fd5b60007fffffffff0000000000000000000000000000000000000000000000000000000082169050919050565b611d9a81611d65565b8114611da557600080fd5b50565b600081359050611db781611d91565b92915050565b600060208284031215611dd357611dd2611d5b565b5b6000611de184828501611da8565b91505092915050565b60008115159050919050565b611dff81611dea565b82525050565b6000602082019050611e1a6000830184611df6565b92915050565b600081519050919050565b600082825260208201905092915050565b60005b83811015611e5a578082015181840152602081019050611e3f565b60008484015250505050565b6000601f19601f8301169050919050565b6000611e8282611e20565b611e8c8185611e2b565b9350611e9c818560208601611e3c565b611ea581611e66565b840191505092915050565b60006020820190508181036000830152611eca8184611e77565b905092915050565b6000819050919050565b611ee581611ed2565b8114611ef057600080fd5b50565b600081359050611f0281611edc565b92915050565b600060208284031215611f1e57611f1d611d5b565b5b6000611f2c84828501611ef3565b91505092915050565b600073ffffffffffffffffffffffffffffffffffffffff82169050919050565b6000611f6082611f35565b9050919050565b611f7081611f55565b82525050565b6000602082019050611f8b6000830184611f67565b92915050565b611f9a81611f55565b8114611fa557600080fd5b50565b600081359050611fb781611f91565b92915050565b60008060408385031215611fd457611fd3611d5b565b5b6000611fe285828601611fa8565b9250506020611ff385828601611ef3565b9150509250929050565b60008060006060848603121561201657612015611d5b565b5b600061202486828701611fa8565b935050602061203586828701611fa8565b925050604061204686828701611ef3565b9150509250925092565b600080fd5b600080fd5b7f4e487b7100000000000000000000000000000000000000000000000000000000600052604160045260246000fd5b61209282611e66565b810181811067ffffffffffffffff821117156120b1576120b061205a565b5b80604052505050565b60006120c4611d51565b90506120d08282612089565b919050565b600067ffffffffffffffff8211156120f0576120ef61205a565b5b6120f982611e66565b9050602081019050919050565b82818337600083830152505050565b6000612128612123846120d5565b6120ba565b90508281526020810184848401111561214457612143612055565b5b61214f848285612106565b509392505050565b600082601f83011261216c5761216b612050565b5b813561217c848260208601612115565b91505092915050565b60006020828403121561219b5761219a611d5b565b5b600082013567ffffffffffffffff8111156121b9576121b8611d60565b5b6121c584828501612157565b91505092915050565b6000602082840312156121e4576121e3611d5b565b5b60006121f284828501611fa8565b91505092915050565b61220481611ed2565b82525050565b600060208201905061221f60008301846121fb565b92915050565b61222e81611dea565b811461223957600080fd5b50565b60008135905061224b81612225565b92915050565b6000806040838503121561226857612267611d5b565b5b600061227685828601611fa8565b92505060206122878582860161223c565b9150509250929050565b600067ffffffffffffffff8211156122ac576122ab61205a565b5b6122b582611e66565b9050602081019050919050565b60006122d56122d084612291565b6120ba565b9050828152602081018484840111156122f1576122f0612055565b5b6122fc848285612106565b509392505050565b600082601f83011261231957612318612050565b5b81356123298482602086016122c2565b91505092915050565b6000806000806080858703121561234c5761234b611d5b565b5b600061235a87828801611fa8565b945050602061236b87828801611fa8565b935050604061237c87828801611ef3565b925050606085013567ffffffffffffffff81111561239d5761239c611d60565b5b6123a987828801612304565b91505092959194509250565b600080604083850312156123cc576123cb611d5b565b5b60006123da85828601611fa8565b92505060206123eb85828601611fa8565b9150509250929050565b7f4e487b7100000000000000000000000000000000000000000000000000000000600052602260045260246000fd5b6000600282049050600182168061243c57607f821691505b60208210810361244f5761244e6123f5565b5b50919050565b600060608201905061246a6000830186611f67565b61247760208301856121fb565b6124846040830184611f67565b949350505050565b600081905092915050565b60006124a282611e20565b6124ac818561248c565b93506124bc818560208601611e3c565b80840191505092915050565b60006124d48285612497565b91506124e08284612497565b91508190509392505050565b7f7b226e616d65223a20224c434d204f4e2d434841494e4544222c20226465736360008201527f72697074696f6e223a2022412073696d706c6520535647206261736564206f6e60208201527f2d636861696e204e4654222c2022696d616765223a2022646174613a696d616760408201527f652f7376672b786d6c3b6261736536342c50484e325a79423462577875637a3060608201527f6e6148523063446f764c336433647935334d793576636d63764d6a41774d433960808201527f7a646d636e494864705a48526f505363784d4449304a79426f5a576c6e61485160a08201527f394a7a45774d6a516e50676f6749434167494341385a47566d637a343859327860c08201527f706346426864476767615751394a32456e506a78775958526f494751394a303060e08201527f774944426f4d5441794e4859784d444930534442364a79382b5043396a62476c6101008201527f7755474630614434384c32526c5a6e4d2b43694167494341674944786e49474e6101208201527f7361584174634746306144306e64584a734b434e684b53632b436941674943416101408201527f674943416750484268644767675a44306e545441674d4767784d444930646a456101608201527f774d6a52494d486f6e4c7a344b494341674943416749434138634746306143426101808201527f6d615778735053636a5a6d5a6d4a79426b5053644e4d4341794e44466f4d54416101a08201527f794e4859794d456777656b3077494455774d6d67784d444930646a49775344426101c08201527f36545441674e7a597a614445774d6a52324d6a42494d486f6e4c7a344b4943416101e08201527f674943416749434138634746306143426d615778735053636a5a6d5a6d4a79426102008201527f6b5053644e4d6a51784944426f4d6a42324d5441794e4767744d6a42364a79386102208201527f2b4369416749434167494477765a7a344b494341674944777663335a6e50673d6102408201527f3d227d000000000000000000000000000000000000000000000000000000000061026082015250565b60006128016102638361248c565b915061280c826124ec565b61026382019050919050565b6000612823826127f3565b9150819050919050565b7f646174613a6170706c69636174696f6e2f6a736f6e3b6261736536342c000000600082015250565b6000612863601d8361248c565b915061286e8261282d565b601d82019050919050565b600061288482612856565b91506128908284612497565b915081905092915050565b7f4e487b7100000000000000000000000000000000000000000000000000000000600052601160045260246000fd5b60006128d582611ed2565b91507fffffffffffffffffffffffffffffffffffffffffffffffffffffffffffffffff82036129075761290661289b565b5b600182019050919050565b600061291d82611ed2565b915061292883611ed2565b92508282019050808211156129405761293f61289b565b5b92915050565b7f4e487b7100000000000000000000000000000000000000000000000000000000600052601260045260246000fd5b600061298082611ed2565b915061298b83611ed2565b92508261299b5761299a612946565b5b828204905092915050565b60006129b182611ed2565b91506129bc83611ed2565b92508282026129ca81611ed2565b915082820484148315176129e1576129e061289b565b5b5092915050565b600081519050919050565b600082825260208201905092915050565b6000612a0f826129e8565b612a1981856129f3565b9350612a29818560208601611e3c565b612a3281611e66565b840191505092915050565b6000608082019050612a526000830187611f67565b612a5f6020830186611f67565b612a6c60408301856121fb565b8181036060830152612a7e8184612a04565b905095945050505050565b600081519050612a9881611d91565b92915050565b600060208284031215612ab457612ab3611d5b565b5b6000612ac284828501612a89565b91505092915050565b60008190508160005260206000209050919050565b60006020601f8301049050919050565b600082821b905092915050565b600060088302612b2d7fffffffffffffffffffffffffffffffffffffffffffffffffffffffffffffffff82612af0565b612b378683612af0565b95508019841693508086168417925050509392505050565b6000819050919050565b6000612b74612b6f612b6a84611ed2565b612b4f565b611ed2565b9050919050565b6000819050919050565b612b8e83612b59565b612ba2612b9a82612b7b565b848454612afd565b825550505050565b600090565b612bb7612baa565b612bc2818484612b85565b505050565b5b81811015612be657612bdb600082612baf565b600181019050612bc8565b5050565b601f821115612c2b57612bfc81612acb565b612c0584612ae0565b81016020851015612c14578190505b612c28612c2085612ae0565b830182612bc7565b50505b505050565b600082821c905092915050565b6000612c4e60001984600802612c30565b1980831691505092915050565b6000612c678383612c3d565b9150826002028217905092915050565b612c8082611e20565b67ffffffffffffffff811115612c9957612c9861205a565b5b612ca38254612424565b612cae828285612bea565b600060209050601f831160018114612ce15760008415612ccf578287015190505b612cd98582612c5b565b865550612d41565b601f198416612cef86612acb565b60005b82811015612d1757848901518255600182019150602085019450602081019050612cf2565b86831015612d345784890151612d30601f891682612c3d565b8355505b6001600288020188555050505b505050505050565b6000604082019050612d5e6000830185611f67565b612d6b60208301846121fb565b939250505056fe4142434445464748494a4b4c4d4e4f505152535455565758595a6162636465666768696a6b6c6d6e6f707172737475767778797a303132333435363738392b2f646174613a696d6167652f7376672b786d6c3b6261736536342c50484e325a79423462577875637a306e6148523063446f764c336433647935334d793576636d63764d6a41774d43397a646d636e494864705a48526f505363784d4449304a79426f5a576c6e614851394a7a45774d6a516e50676f6749434167494341385a47566d637a3438593278706346426864476767615751394a32456e506a78775958526f494751394a3030774944426f4d5441794e4859784d444930534442364a79382b5043396a62476c7755474630614434384c32526c5a6e4d2b43694167494341674944786e49474e7361584174634746306144306e64584a734b434e684b53632b43694167494341674943416750484268644767675a44306e545441674d4767784d444930646a45774d6a52494d486f6e4c7a344b494341674943416749434138634746306143426d615778735053636a5a6d5a6d4a79426b5053644e4d4341794e44466f4d5441794e4859794d456777656b3077494455774d6d67784d444930646a497753444236545441674e7a597a614445774d6a52324d6a42494d486f6e4c7a344b494341674943416749434138634746306143426d615778735053636a5a6d5a6d4a79426b5053644e4d6a51784944426f4d6a42324d5441794e4767744d6a42364a79382b4369416749434167494477765a7a344b494341674944777663335a6e50673d3da26469706673582212204af6faa9e2d011f65556140a2ab4371df9ef12b4ae427710f1126bdb9567a5a764736f6c63430008180033",
  "linkReferences": {},
  "deployedLinkReferences": {}
}