{
  "_format": "hh-sol-artifact-1",
  "contractName": "OnChainNFT",
  "sourceName": "contracts/OnChainNFT.sol",
  "abi": [
    {
      "inputs": [],
      "stateMutability": "nonpayable",
      "type": "constructor"
    },
    {
      "inputs": [
        {
          "internalType": "address",
          "name": "sender",
          "type": "address"
        },
        {
          "internalType": "uint256",
          "name": "tokenId",
          "type": "uint256"
        },
        {
          "internalType": "address",
          "name": "owner",
          "type": "address"
        }
      ],
      "name": "ERC721IncorrectOwner",
      "type": "error"
    },
    {
      "inputs": [
        {
          "internalType": "address",
          "name": "operator",
          "type": "address"
        },
        {
          "internalType": "uint256",
          "name": "tokenId",
          "type": "uint256"
        }
      ],
      "name": "ERC721InsufficientApproval",
      "type": "error"
    },
    {
      "inputs": [
        {
          "internalType": "address",
          "name": "approver",
          "type": "address"
        }
      ],
      "name": "ERC721InvalidApprover",
      "type": "error"
    },
    {
      "inputs": [
        {
          "internalType": "address",
          "name": "operator",
          "type": "address"
        }
      ],
      "name": "ERC721InvalidOperator",
      "type": "error"
    },
    {
      "inputs": [
        {
          "internalType": "address",
          "name": "owner",
          "type": "address"
        }
      ],
      "name": "ERC721InvalidOwner",
      "type": "error"
    },
    {
      "inputs": [
        {
          "internalType": "address",
          "name": "receiver",
          "type": "address"
        }
      ],
      "name": "ERC721InvalidReceiver",
      "type": "error"
    },
    {
      "inputs": [
        {
          "internalType": "address",
          "name": "sender",
          "type": "address"
        }
      ],
      "name": "ERC721InvalidSender",
      "type": "error"
    },
    {
      "inputs": [
        {
          "internalType": "uint256",
          "name": "tokenId",
          "type": "uint256"
        }
      ],
      "name": "ERC721NonexistentToken",
      "type": "error"
    },
    {
      "inputs": [
        {
          "internalType": "address",
          "name": "owner",
          "type": "address"
        }
      ],
      "name": "OwnableInvalidOwner",
      "type": "error"
    },
    {
      "inputs": [
        {
          "internalType": "address",
          "name": "account",
          "type": "address"
        }
      ],
      "name": "OwnableUnauthorizedAccount",
      "type": "error"
    },
    {
      "anonymous": false,
      "inputs": [
        {
          "indexed": true,
          "internalType": "address",
          "name": "owner",
          "type": "address"
        },
        {
          "indexed": true,
          "internalType": "address",
          "name": "approved",
          "type": "address"
        },
        {
          "indexed": true,
          "internalType": "uint256",
          "name": "tokenId",
          "type": "uint256"
        }
      ],
      "name": "Approval",
      "type": "event"
    },
    {
      "anonymous": false,
      "inputs": [
        {
          "indexed": true,
          "internalType": "address",
          "name": "owner",
          "type": "address"
        },
        {
          "indexed": true,
          "internalType": "address",
          "name": "operator",
          "type": "address"
        },
        {
          "indexed": false,
          "internalType": "bool",
          "name": "approved",
          "type": "bool"
        }
      ],
      "name": "ApprovalForAll",
      "type": "event"
    },
    {
      "anonymous": false,
      "inputs": [
        {
          "indexed": false,
          "internalType": "uint256",
          "name": "_fromTokenId",
          "type": "uint256"
        },
        {
          "indexed": false,
          "internalType": "uint256",
          "name": "_toTokenId",
          "type": "uint256"
        }
      ],
      "name": "BatchMetadataUpdate",
      "type": "event"
    },
    {
      "anonymous": false,
      "inputs": [
        {
          "indexed": false,
          "internalType": "uint256",
          "name": "_tokenId",
          "type": "uint256"
        }
      ],
      "name": "MetadataUpdate",
      "type": "event"
    },
    {
      "anonymous": false,
      "inputs": [
        {
          "indexed": false,
          "internalType": "uint256",
          "name": "tokenId",
          "type": "uint256"
        }
      ],
      "name": "Minted",
      "type": "event"
    },
    {
      "anonymous": false,
      "inputs": [
        {
          "indexed": true,
          "internalType": "address",
          "name": "previousOwner",
          "type": "address"
        },
        {
          "indexed": true,
          "internalType": "address",
          "name": "newOwner",
          "type": "address"
        }
      ],
      "name": "OwnershipTransferred",
      "type": "event"
    },
    {
      "anonymous": false,
      "inputs": [
        {
          "indexed": true,
          "internalType": "address",
          "name": "from",
          "type": "address"
        },
        {
          "indexed": true,
          "internalType": "address",
          "name": "to",
          "type": "address"
        },
        {
          "indexed": true,
          "internalType": "uint256",
          "name": "tokenId",
          "type": "uint256"
        }
      ],
      "name": "Transfer",
      "type": "event"
    },
    {
      "inputs": [
        {
          "internalType": "address",
          "name": "to",
          "type": "address"
        },
        {
          "internalType": "uint256",
          "name": "tokenId",
          "type": "uint256"
        }
      ],
      "name": "approve",
      "outputs": [],
      "stateMutability": "nonpayable",
      "type": "function"
    },
    {
      "inputs": [
        {
          "internalType": "address",
          "name": "owner",
          "type": "address"
        }
      ],
      "name": "balanceOf",
      "outputs": [
        {
          "internalType": "uint256",
          "name": "",
          "type": "uint256"
        }
      ],
      "stateMutability": "view",
      "type": "function"
    },
    {
      "inputs": [
        {
          "internalType": "string",
          "name": "imageURI",
          "type": "string"
        }
      ],
      "name": "formatTokenURI",
      "outputs": [
        {
          "internalType": "string",
          "name": "",
          "type": "string"
        }
      ],
      "stateMutability": "pure",
      "type": "function"
    },
    {
      "inputs": [
        {
          "internalType": "uint256",
          "name": "tokenId",
          "type": "uint256"
        }
      ],
      "name": "getApproved",
      "outputs": [
        {
          "internalType": "address",
          "name": "",
          "type": "address"
        }
      ],
      "stateMutability": "view",
      "type": "function"
    },
    {
      "inputs": [
        {
          "internalType": "address",
          "name": "owner",
          "type": "address"
        },
        {
          "internalType": "address",
          "name": "operator",
          "type": "address"
        }
      ],
      "name": "isApprovedForAll",
      "outputs": [
        {
          "internalType": "bool",
          "name": "",
          "type": "bool"
        }
      ],
      "stateMutability": "view",
      "type": "function"
    },
    {
      "inputs": [
        {
          "internalType": "string",
          "name": "svg",
          "type": "string"
        }
      ],
      "name": "mint",
      "outputs": [],
      "stateMutability": "nonpayable",
      "type": "function"
    },
    {
      "inputs": [],
      "name": "name",
      "outputs": [
        {
          "internalType": "string",
          "name": "",
          "type": "string"
        }
      ],
      "stateMutability": "view",
      "type": "function"
    },
    {
      "inputs": [],
      "name": "owner",
      "outputs": [
        {
          "internalType": "address",
          "name": "",
          "type": "address"
        }
      ],
      "stateMutability": "view",
      "type": "function"
    },
    {
      "inputs": [
        {
          "internalType": "uint256",
          "name": "tokenId",
          "type": "uint256"
        }
      ],
      "name": "ownerOf",
      "outputs": [
        {
          "internalType": "address",
          "name": "",
          "type": "address"
        }
      ],
      "stateMutability": "view",
      "type": "function"
    },
    {
      "inputs": [],
      "name": "renounceOwnership",
      "outputs": [],
      "stateMutability": "nonpayable",
      "type": "function"
    },
    {
      "inputs": [
        {
          "internalType": "address",
          "name": "from",
          "type": "address"
        },
        {
          "internalType": "address",
          "name": "to",
          "type": "address"
        },
        {
          "internalType": "uint256",
          "name": "tokenId",
          "type": "uint256"
        }
      ],
      "name": "safeTransferFrom",
      "outputs": [],
      "stateMutability": "nonpayable",
      "type": "function"
    },
    {
      "inputs": [
        {
          "internalType": "address",
          "name": "from",
          "type": "address"
        },
        {
          "internalType": "address",
          "name": "to",
          "type": "address"
        },
        {
          "internalType": "uint256",
          "name": "tokenId",
          "type": "uint256"
        },
        {
          "internalType": "bytes",
          "name": "data",
          "type": "bytes"
        }
      ],
      "name": "safeTransferFrom",
      "outputs": [],
      "stateMutability": "nonpayable",
      "type": "function"
    },
    {
      "inputs": [
        {
          "internalType": "address",
          "name": "operator",
          "type": "address"
        },
        {
          "internalType": "bool",
          "name": "approved",
          "type": "bool"
        }
      ],
      "name": "setApprovalForAll",
      "outputs": [],
      "stateMutability": "nonpayable",
      "type": "function"
    },
    {
      "inputs": [
        {
          "internalType": "bytes4",
          "name": "interfaceId",
          "type": "bytes4"
        }
      ],
      "name": "supportsInterface",
      "outputs": [
        {
          "internalType": "bool",
          "name": "",
          "type": "bool"
        }
      ],
      "stateMutability": "view",
      "type": "function"
    },
    {
      "inputs": [
        {
          "internalType": "string",
          "name": "svg",
          "type": "string"
        }
      ],
      "name": "svgToImageURI",
      "outputs": [
        {
          "internalType": "string",
          "name": "",
          "type": "string"
        }
      ],
      "stateMutability": "pure",
      "type": "function"
    },
    {
      "inputs": [],
      "name": "symbol",
      "outputs": [
        {
          "internalType": "string",
          "name": "",
          "type": "string"
        }
      ],
      "stateMutability": "view",
      "type": "function"
    },
    {
      "inputs": [
        {
          "internalType": "uint256",
          "name": "tokenId",
          "type": "uint256"
        }
      ],
      "name": "tokenURI",
      "outputs": [
        {
          "internalType": "string",
          "name": "",
          "type": "string"
        }
      ],
      "stateMutability": "view",
      "type": "function"
    },
    {
      "inputs": [
        {
          "internalType": "address",
          "name": "from",
          "type": "address"
        },
        {
          "internalType": "address",
          "name": "to",
          "type": "address"
        },
        {
          "internalType": "uint256",
          "name": "tokenId",
          "type": "uint256"
        }
      ],
      "name": "transferFrom",
      "outputs": [],
      "stateMutability": "nonpayable",
      "type": "function"
    },
    {
      "inputs": [
        {
          "internalType": "address",
          "name": "newOwner",
          "type": "address"
        }
      ],
      "name": "transferOwnership",
      "outputs": [],
      "stateMutability": "nonpayable",
      "type": "function"
    }
  ],
  "bytecode": "0x60806040523480156200001157600080fd5b50336040518060400160405280600a81526020016913db90da185a5b93919560b21b815250604051806040016040528060038152602001624f4e4360e81b8152508160009081620000639190620001b2565b506001620000728282620001b2565b5050506001600160a01b038116620000a457604051631e4fbdf760e01b81526000600482015260240160405180910390fd5b620000af81620000bb565b5060016008556200027e565b600780546001600160a01b038381166001600160a01b0319831681179093556040519116919082907f8be0079c531659141344cd1fd0a4f28419497f9722a3daafe3b4186f6b6457e090600090a35050565b634e487b7160e01b600052604160045260246000fd5b600181811c908216806200013857607f821691505b6020821081036200015957634e487b7160e01b600052602260045260246000fd5b50919050565b601f821115620001ad57600081815260208120601f850160051c81016020861015620001885750805b601f850160051c820191505b81811015620001a95782815560010162000194565b5050505b505050565b81516001600160401b03811115620001ce57620001ce6200010d565b620001e681620001df845462000123565b846200015f565b602080601f8311600181146200021e5760008415620002055750858301515b600019600386901b1c1916600185901b178555620001a9565b600085815260208120601f198616915b828110156200024f578886015182559484019460019091019084016200022e565b50858210156200026e5787850151600019600388901b60f8161c191681555b5050505050600190811b01905550565b611c61806200028e6000396000f3fe608060405234801561001057600080fd5b50600436106101215760003560e01c8063715018a6116100ad578063b88d4fde11610071578063b88d4fde14610257578063c87b56dd1461026a578063d85d3d271461027d578063e985e9c514610290578063f2fde38b146102a357600080fd5b8063715018a61461021057806371aee193146102185780638da5cb5b1461022b57806395d89b411461023c578063a22cb4651461024457600080fd5b806323b872dd116100f457806323b872dd146101a357806330d871c6146101b657806342842e0e146101c95780636352211e146101dc57806370a08231146101ef57600080fd5b806301ffc9a71461012657806306fdde031461014e578063081812fc14610163578063095ea7b31461018e575b600080fd5b61013961013436600461145a565b6102b6565b60405190151581526020015b60405180910390f35b6101566102e1565b60405161014591906114c7565b6101766101713660046114da565b610373565b6040516001600160a01b039091168152602001610145565b6101a161019c36600461150f565b61039c565b005b6101a16101b1366004611539565b6103ab565b6101566101c4366004611601565b61043b565b6101a16101d7366004611539565b610495565b6101766101ea3660046114da565b6104b5565b6102026101fd36600461164a565b6104c0565b604051908152602001610145565b6101a1610508565b610156610226366004611601565b61051c565b6007546001600160a01b0316610176565b610156610853565b6101a1610252366004611665565b610862565b6101a16102653660046116a1565b61086d565b6101566102783660046114da565b610884565b6101a161028b366004611601565b61097d565b61013961029e36600461171d565b610a05565b6101a16102b136600461164a565b610a33565b60006001600160e01b03198216632483248360e11b14806102db57506102db82610a71565b92915050565b6060600080546102f090611750565b80601f016020809104026020016040519081016040528092919081815260200182805461031c90611750565b80156103695780601f1061033e57610100808354040283529160200191610369565b820191906000526020600020905b81548152906001019060200180831161034c57829003601f168201915b5050505050905090565b600061037e82610ac1565b506000828152600460205260409020546001600160a01b03166102db565b6103a7828233610afa565b5050565b6001600160a01b0382166103da57604051633250574960e11b8152600060048201526024015b60405180910390fd5b60006103e7838333610b07565b9050836001600160a01b0316816001600160a01b031614610435576040516364283d7b60e01b81526001600160a01b03808616600483015260248201849052821660448201526064016103d1565b50505050565b6060600060405180610240016040528061020a8152602001611a2261020a91399050600061046884610c00565b9050818160405160200161047d92919061178a565b60405160208183030381529060405292505050919050565b6104b08383836040518060200160405280600081525061086d565b505050565b60006102db82610ac1565b60006001600160a01b0382166104ec576040516322718ad960e21b8152600060048201526024016103d1565b506001600160a01b031660009081526003602052604090205490565b610510610d6a565b61051a6000610d97565b565b606061082d604051602001610819907f7b226e616d65223a20224c434d204f4e2d434841494e4544222c20226465736381527f72697074696f6e223a2022412073696d706c6520535647206261736564206f6e60208201527f2d636861696e204e4654222c2022696d616765223a2022646174613a696d616760408201527f652f7376672b786d6c3b6261736536342c50484e325a79423462577875637a3060608201527f6e6148523063446f764c336433647935334d793576636d63764d6a41774d433960808201527f7a646d636e494864705a48526f505363784d4449304a79426f5a576c6e61485160a08201527f394a7a45774d6a516e50676f6749434167494341385a47566d637a343859327860c08201527f706346426864476767615751394a32456e506a78775958526f494751394a303060e08201527f774944426f4d5441794e4859784d444930534442364a79382b5043396a62476c6101008201527f7755474630614434384c32526c5a6e4d2b43694167494341674944786e49474e6101208201527f7361584174634746306144306e64584a734b434e684b53632b436941674943416101408201527f674943416750484268644767675a44306e545441674d4767784d444930646a456101608201527f774d6a52494d486f6e4c7a344b494341674943416749434138634746306143426101808201527f6d615778735053636a5a6d5a6d4a79426b5053644e4d4341794e44466f4d54416101a08201527f794e4859794d456777656b3077494455774d6d67784d444930646a49775344426101c08201527f36545441674e7a597a614445774d6a52324d6a42494d486f6e4c7a344b4943416101e08201527f674943416749434138634746306143426d615778735053636a5a6d5a6d4a79426102008201527f6b5053644e4d6a51784944426f4d6a42324d5441794e4767744d6a42364a79386102208201527f2b4369416749434167494477765a7a344b494341674944777663335a6e50673d610240820152623d227d60e81b6102608201526102630190565b604051602081830303815290604052610c00565b60405160200161083d91906117b9565b6040516020818303038152906040529050919050565b6060600180546102f090611750565b6103a7338383610de9565b6108788484846103ab565b61043584848484610e88565b606061088f82610ac1565b50600082815260066020526040812080546108a990611750565b80601f01602080910402602001604051908101604052809291908181526020018280546108d590611750565b80156109225780601f106108f757610100808354040283529160200191610922565b820191906000526020600020905b81548152906001019060200180831161090557829003601f168201915b50505050509050600061094060408051602081019091526000815290565b90508051600003610952575092915050565b81511561096c57808260405160200161047d92919061178a565b61097584610fb1565b949350505050565b610985610d6a565b60006109908261043b565b9050600061099d8261051c565b6008549091506109ad3382611026565b6109b78183611040565b6040518181527f176b02bb2d12439ff7a20b59f402cca16c76f50508b13ef3166a600eb719354a9060200160405180910390a1600880549060006109fa83611814565b919050555050505050565b6001600160a01b03918216600090815260056020908152604080832093909416825291909152205460ff1690565b610a3b610d6a565b6001600160a01b038116610a6557604051631e4fbdf760e01b8152600060048201526024016103d1565b610a6e81610d97565b50565b60006001600160e01b031982166380ac58cd60e01b1480610aa257506001600160e01b03198216635b5e139f60e01b145b806102db57506301ffc9a760e01b6001600160e01b03198316146102db565b6000818152600260205260408120546001600160a01b0316806102db57604051637e27328960e01b8152600481018490526024016103d1565b6104b08383836001611090565b6000828152600260205260408120546001600160a01b0390811690831615610b3457610b34818486611196565b6001600160a01b03811615610b7257610b51600085600080611090565b6001600160a01b038116600090815260036020526040902080546000190190555b6001600160a01b03851615610ba1576001600160a01b0385166000908152600360205260409020805460010190555b60008481526002602052604080822080546001600160a01b0319166001600160a01b0389811691821790925591518793918516917fddf252ad1be2c89b69c2b068fc378daa952ba7f163c4a11628f55a4df523b3ef91a4949350505050565b80516060906000819003610c24575050604080516020810190915260008152919050565b60006003610c3383600261182d565b610c3d9190611840565b610c48906004611862565b90506000610c5782602061182d565b67ffffffffffffffff811115610c6f57610c6f611575565b6040519080825280601f01601f191660200182016040528015610c99576020820181803683370190505b50905060006040518060600160405280604081526020016119e2604091399050600181016020830160005b86811015610d25576003818a01810151603f601282901c8116860151600c83901c8216870151600684901c831688015192909316870151600891821b60ff94851601821b92841692909201901b91160160e01b835260049092019101610cc4565b506003860660018114610d3f5760028114610d5057610d5c565b613d3d60f01b600119830152610d5c565b603d60f81b6000198301525b505050918152949350505050565b6007546001600160a01b0316331461051a5760405163118cdaa760e01b81523360048201526024016103d1565b600780546001600160a01b038381166001600160a01b0319831681179093556040519116919082907f8be0079c531659141344cd1fd0a4f28419497f9722a3daafe3b4186f6b6457e090600090a35050565b6001600160a01b038216610e1b57604051630b61174360e31b81526001600160a01b03831660048201526024016103d1565b6001600160a01b03838116600081815260056020908152604080832094871680845294825291829020805460ff191686151590811790915591519182527f17307eab39ab6107e8899845ad3d59bd9653f200f220920489ca2b5937696c31910160405180910390a3505050565b6001600160a01b0383163b1561043557604051630a85bd0160e11b81526001600160a01b0384169063150b7a0290610eca903390889087908790600401611879565b6020604051808303816000875af1925050508015610f05575060408051601f3d908101601f19168201909252610f02918101906118b6565b60015b610f6e573d808015610f33576040519150601f19603f3d011682016040523d82523d6000602084013e610f38565b606091505b508051600003610f6657604051633250574960e11b81526001600160a01b03851660048201526024016103d1565b805181602001fd5b6001600160e01b03198116630a85bd0160e11b14610faa57604051633250574960e11b81526001600160a01b03851660048201526024016103d1565b5050505050565b6060610fbc82610ac1565b506000610fd460408051602081019091526000815290565b90506000815111610ff4576040518060200160405280600081525061101f565b80610ffe846111fa565b60405160200161100f92919061178a565b6040516020818303038152906040525b9392505050565b6103a782826040518060200160405280600081525061128d565b60008281526006602052604090206110588282611921565b506040518281527ff8e1a15aba9398e019f0b49df1a4fde98ee17ae345cb5f6b5e2c27f5033e8ce79060200160405180910390a15050565b80806110a457506001600160a01b03821615155b156111665760006110b484610ac1565b90506001600160a01b038316158015906110e05750826001600160a01b0316816001600160a01b031614155b80156110f357506110f18184610a05565b155b1561111c5760405163a9fbf51f60e01b81526001600160a01b03841660048201526024016103d1565b81156111645783856001600160a01b0316826001600160a01b03167f8c5be1e5ebec7d5bd14f71427d1e84f3dd0314c0f7b2291e5b200ac8c7c3b92560405160405180910390a45b505b5050600090815260046020526040902080546001600160a01b0319166001600160a01b0392909216919091179055565b6111a18383836112a4565b6104b0576001600160a01b0383166111cf57604051637e27328960e01b8152600481018290526024016103d1565b60405163177e802f60e01b81526001600160a01b0383166004820152602481018290526044016103d1565b6060600061120783611307565b600101905060008167ffffffffffffffff81111561122757611227611575565b6040519080825280601f01601f191660200182016040528015611251576020820181803683370190505b5090508181016020015b600019016f181899199a1a9b1b9c1cb0b131b232b360811b600a86061a8153600a850494508461125b57509392505050565b61129783836113df565b6104b06000848484610e88565b60006001600160a01b038316158015906109755750826001600160a01b0316846001600160a01b031614806112de57506112de8484610a05565b806109755750506000908152600460205260409020546001600160a01b03908116911614919050565b60008072184f03e93ff9f4daa797ed6e38ed64bf6a1f0160401b83106113465772184f03e93ff9f4daa797ed6e38ed64bf6a1f0160401b830492506040015b6d04ee2d6d415b85acef81000000008310611372576d04ee2d6d415b85acef8100000000830492506020015b662386f26fc10000831061139057662386f26fc10000830492506010015b6305f5e10083106113a8576305f5e100830492506008015b61271083106113bc57612710830492506004015b606483106113ce576064830492506002015b600a83106102db5760010192915050565b6001600160a01b03821661140957604051633250574960e11b8152600060048201526024016103d1565b600061141783836000610b07565b90506001600160a01b038116156104b0576040516339e3563760e11b8152600060048201526024016103d1565b6001600160e01b031981168114610a6e57600080fd5b60006020828403121561146c57600080fd5b813561101f81611444565b60005b8381101561149257818101518382015260200161147a565b50506000910152565b600081518084526114b3816020860160208601611477565b601f01601f19169290920160200192915050565b60208152600061101f602083018461149b565b6000602082840312156114ec57600080fd5b5035919050565b80356001600160a01b038116811461150a57600080fd5b919050565b6000806040838503121561152257600080fd5b61152b836114f3565b946020939093013593505050565b60008060006060848603121561154e57600080fd5b611557846114f3565b9250611565602085016114f3565b9150604084013590509250925092565b634e487b7160e01b600052604160045260246000fd5b600067ffffffffffffffff808411156115a6576115a6611575565b604051601f8501601f19908116603f011681019082821181831017156115ce576115ce611575565b816040528093508581528686860111156115e757600080fd5b858560208301376000602087830101525050509392505050565b60006020828403121561161357600080fd5b813567ffffffffffffffff81111561162a57600080fd5b8201601f8101841361163b57600080fd5b6109758482356020840161158b565b60006020828403121561165c57600080fd5b61101f826114f3565b6000806040838503121561167857600080fd5b611681836114f3565b91506020830135801515811461169657600080fd5b809150509250929050565b600080600080608085870312156116b757600080fd5b6116c0856114f3565b93506116ce602086016114f3565b925060408501359150606085013567ffffffffffffffff8111156116f157600080fd5b8501601f8101871361170257600080fd5b6117118782356020840161158b565b91505092959194509250565b6000806040838503121561173057600080fd5b611739836114f3565b9150611747602084016114f3565b90509250929050565b600181811c9082168061176457607f821691505b60208210810361178457634e487b7160e01b600052602260045260246000fd5b50919050565b6000835161179c818460208801611477565b8351908301906117b0818360208801611477565b01949350505050565b7f646174613a6170706c69636174696f6e2f6a736f6e3b6261736536342c0000008152600082516117f181601d850160208701611477565b91909101601d0192915050565b634e487b7160e01b600052601160045260246000fd5b600060018201611826576118266117fe565b5060010190565b808201808211156102db576102db6117fe565b60008261185d57634e487b7160e01b600052601260045260246000fd5b500490565b80820281158282048414176102db576102db6117fe565b6001600160a01b03858116825284166020820152604081018390526080606082018190526000906118ac9083018461149b565b9695505050505050565b6000602082840312156118c857600080fd5b815161101f81611444565b601f8211156104b057600081815260208120601f850160051c810160208610156118fa5750805b601f850160051c820191505b8181101561191957828155600101611906565b505050505050565b815167ffffffffffffffff81111561193b5761193b611575565b61194f816119498454611750565b846118d3565b602080601f831160018114611984576000841561196c5750858301515b600019600386901b1c1916600185901b178555611919565b600085815260208120601f198616915b828110156119b357888601518255948401946001909101908401611994565b50858210156119d15787850151600019600388901b60f8161c191681555b5050505050600190811b0190555056fe4142434445464748494a4b4c4d4e4f505152535455565758595a6162636465666768696a6b6c6d6e6f707172737475767778797a303132333435363738392b2f646174613a696d6167652f7376672b786d6c3b6261736536342c50484e325a79423462577875637a306e6148523063446f764c336433647935334d793576636d63764d6a41774d43397a646d636e494864705a48526f505363784d4449304a79426f5a576c6e614851394a7a45774d6a516e50676f6749434167494341385a47566d637a3438593278706346426864476767615751394a32456e506a78775958526f494751394a3030774944426f4d5441794e4859784d444930534442364a79382b5043396a62476c7755474630614434384c32526c5a6e4d2b43694167494341674944786e49474e7361584174634746306144306e64584a734b434e684b53632b43694167494341674943416750484268644767675a44306e545441674d4767784d444930646a45774d6a52494d486f6e4c7a344b494341674943416749434138634746306143426d615778735053636a5a6d5a6d4a79426b5053644e4d4341794e44466f4d5441794e4859794d456777656b3077494455774d6d67784d444930646a497753444236545441674e7a597a614445774d6a52324d6a42494d486f6e4c7a344b494341674943416749434138634746306143426d615778735053636a5a6d5a6d4a79426b5053644e4d6a51784944426f4d6a42324d5441794e4767744d6a42364a79382b4369416749434167494477765a7a344b494341674944777663335a6e50673d3da26469706673582212206d5d28c44725844d4299831f4fcbd84dfe80c8a5e409fe9a16071bc90234e61664736f6c63430008140033",
  "linkReferences": {},
  "deployedLinkReferences": {}
}